:020000040800F2
:100000000000022041000008A1000008A100000833
:10001000A1000008A1000008A100000800000000E5
:10002000000000000000000000000000A100000827
:10003000A100000800000000A1000008FD0E00085B
:100040001349124A134B5B1A00F0078012F8014B58
:1000500001F8014B013B3FF7F9AF0F490F4B5B1A1A
:1000600000F007804FF0000201F8012B013B3FF741
:10007000FBAF00F01EF800F033F800F030F84FF05E
:1000800000004FF0000102F059FFFEE7BC2F00080E
:10009000000000203800002038000020CC010020A3
:1000A00070470000A748FDE7A749FDE7A74AFDE71D
:1000B0007047A748A74908604AF6CD30A64908808E
:1000C0004FF05500A5490870A549A64B5B1A05D00D
:1000D0004FF0000201F8012B013BFBDC7047704739
:1000E0007047A1480168A1F1020101609F480168C1
:1000F00001F102010160974801684FEA5101016076
:10010000704740F68873C0F2000300FB03F31BB195
:10011000A3F10103FFF7FBBF704741F20001C0F2FA
:10012000000101FA00F140F61842C4F20202116027
:10013000704741F20001C0F2000101FA00F140F6FF
:100140001A42C4F20202116070470B684C688D6855
:10015000CE6898464FEAD878B61A75F1000574F162
:10016000000463F1000399464FEAD979C145C0F212
:10017000028000F005B84FF6FE70CFF6FF707047B2
:10018000036044608560C6607047794840F20501AD
:10019000C0F200012DE9F04F6F46026842EA010209
:1001A0000260BD46BDE8F04F0368704770480168C3
:1001B000704740F20004C0F2000440F20A0AC0F2A4
:1001C000000A40F20109C0F2000940F2000BC0F23F
:1001D000000B40F20007C0F20007055D2D2D04BFA3
:1001E00001370130055D04F10104002D7FF4FAAF01
:1001F000A4F10204055DA5F1300505FB09BB0AFB6E
:1002000009F9A4F10104002CBFF6F4AF012F08BFD7
:10021000CBF1000B704757494FEA8000084440F08B
:1002200001000047410200083D02000839020008B1
:100230003502000800BF704700BF704700BF70471D
:1002400000BF7047000102030405060708090A0BF6
:100250000C0D0E0F101112131415161718191A1B66
:100260001C1D1E1F202122232425262728292A2B56
:100270002C2D2E2F303132333435363738393A3B46
:100280003C3D3E3F404142434445464748494A4B36
:100290004C4D4E4F505152535455565758595A5B26
:1002A0005C5D5E5F606162636465666768696A6B16
:1002B0006C6D6E6F707172737475767778797A7B06
:1002C0007C7D7E7F808182838485868788898A8BF6
:1002D0008C8D8E8F909192939495969798999A9BE6
:1002E0009C9D9E9FA0A1A2A3A4A5A6A7A8A9AAABD6
:1002F000ACADAEAFB0B1B2B3B4B5B6B7B8B9BABBC6
:10030000BCBDBEBFC0C1C2C3C4C5C6C7C8C9CACBB5
:10031000CCCDCECFD0D1D2D3D4D5D6D7D8D9DADBA5
:10032000DCDDDEDFE0E1E2E3E4E5E6E7E8E9EAEB95
:10033000ECEDEEEFF0F1F2F3F4F5F6F7F8F9FAFB85
:10034000FCFDFEFF54002002580020025C00200249
:10035000FFFFFFFF00000020040000200600002037
:100360004000002040000020E4020020D4010020D2
:10037000070000202402000880B400AF4FF460534F
:10038000C4F202034FF46052C4F20202126B42F054
:1003900001021A634FF46053C4F202034FF4605237
:1003A000C4F20202126B42F002021A634FF460536D
:1003B000C4F202034FF46052C4F20202126B42F024
:1003C00004021A634FF00003C4F202034FF000026C
:1003D000C4F20202126822F00C021A604FF000030D
:1003E000C4F202034FF00002C4F20202126842F0AB
:1003F00004021A604FF00003C4F202034FF000023F
:10040000C4F20202526822F002025A604FF0000366
:10041000C4F202034FF00002C4F20202926822F01A
:100420000C029A604FF00003C4F202034FF0000286
:10043000C4F20202926842F008029A604FF0000390
:10044000C4F202034FF00002C4F20202D26822F0AA
:100450000C02DA604FF00003C4F202034FF0000216
:10046000C4F20202D26842F00402DA604FF00003E4
:10047000C4F202034FF00002C4F20202126822F03A
:1004800040421A604FF00003C4F202034FF0000232
:10049000C4F20202926822F040429A604FF00003D8
:1004A000C4F202034FF00002C4F20202926842F06A
:1004B00000429A604FF00003C4F202034FF00002C2
:1004C000C4F20202D26822F04042DA604FF0000328
:1004D000C4F202034FF00002C4F20202D26842F0FA
:1004E0008042DA604FF48062C4F202024FF480630B
:1004F000C4F2020319684FF2F033CFF63F730B409A
:1005000013604FF48062C4F202024FF48063C4F2BD
:100510000203196840F20543C0F240030B43136025
:100520004FF48063C4F202034FF48062C4F202020B
:10053000526822F4026222F003025A604FF4806291
:10054000C4F202024FF48063C4F2020399684FF2CE
:10055000F033CFF63F730B4093604FF48062C4F2E8
:1005600002024FF48063C4F20203996840F60A0362
:10057000C0F280030B4393604FF48062C4F2020226
:100580004FF48063C4F20203D9684FF2F033CFF620
:100590003F730B40D3604FF48062C4F202024FF409
:1005A0008063C4F20203D96840F20543C0F24003FD
:1005B0000B43D3604FF40063C4F202034FF40062B4
:1005C000C4F20202126822F470621A604FF40063EF
:1005D000C4F202034FF40062C4F20202126842F451
:1005E000A0621A604FF40063C4F202034FF4006289
:1005F000C4F20202526822F030025A604FF40063E3
:10060000C4F202034FF40062C4F20202926822F4C0
:1006100070629A604FF40063C4F202034FF4006208
:10062000C4F20202926842F420629A604FF40063BE
:10063000C4F202034FF40062C4F20202D26822F450
:100640007062DA604FF40063C4F202034FF4006298
:10065000C4F20202D26842F4A062DA604FF400638E
:10066000C4F202034FF40062C4F20202126822F4E0
:1006700040321A604FF40063C4F202034FF4006288
:10068000C4F20202926822F440329A604FF400638E
:10069000C4F202034FF40062C4F20202926842F410
:1006A00000329A604FF40063C4F202034FF4006218
:1006B000C4F20202D26822F44032DA604FF40063DE
:1006C000C4F202034FF40062C4F20202D26842F4A0
:1006D0008032DA60BD4680BC704700BF80B400AF96
:1006E0004FF46053C4F202034FF46052C4F20202AA
:1006F000126B42F001021A634FF46053C4F202031A
:100700004FF46052C4F20202126B42F002021A630A
:100710004FF46053C4F202034FF46052C4F2020279
:10072000126B42F004021A634FF46053C4F20203E6
:100730004FF46052C4F20202126B42F008021A63D4
:100740004FF00003C4F202034FF00002C4F20202B1
:10075000126822F00C021A604FF00003C4F2020388
:100760004FF00002C4F20202126842F004021A6062
:100770004FF00003C4F202034FF00002C4F2020281
:10078000526822F002025A604FF00003C4F20203E2
:100790004FF00002C4F20202926822F00C029A604A
:1007A0004FF00003C4F202034FF00002C4F2020251
:1007B000926842F008029A604FF00003C4F202030C
:1007C0004FF00002C4F20202D26822F00C02DA609A
:1007D0004FF00003C4F202034FF00002C4F2020221
:1007E000D26842F00402DA604FF48062C4F202027E
:1007F0004FF48063C4F2020319684FF2F003CFF69E
:100800003F730B4013604FF48062C4F202024FF456
:100810008063C4F20203196840F20553C0F240033A
:100820000B4313604FF48063C4F202034FF4806201
:10083000C4F20202526822F4036222F003025A60F8
:100840004FF48062C4F202024FF48063C4F20203E8
:1008500099684FF2F003CFF63F730B4093604FF46B
:100860008062C4F202024FF48063C4F2020399680A
:1008700040F60A23C0F280030B4393604FF480627A
:10088000C4F202024FF48063C4F20203D9684FF24B
:10089000F003CFF63F730B40D3604FF48062C4F295
:1008A00002024FF48063C4F20203D96840F2055398
:1008B000C0F240030B43D3604FF40062C4F2020263
:1008C0004FF40063C4F2020319684FF2C303CFF67A
:1008D0003F730B4013604FF40062C4F202024FF406
:1008E0000063C4F20203196840F21453C0F24003DB
:1008F0000B4313604FF40063C4F202034FF4006231
:10090000C4F20202526822F4036222F006025A6024
:100910004FF40062C4F202024FF40063C4F2020317
:1009200099684FF2C303CFF63F730B4093604FF4C7
:100930000062C4F202024FF40063C4F20203996839
:1009400040F62823C0F280030B4393604FF400620B
:10095000C4F202024FF40063C4F20203D9684FF2FA
:10096000C303CFF63F730B40D3604FF40062C4F271
:1009700002024FF40063C4F20203D96840F2145338
:10098000C0F240030B43D3604FF44063C4F2020350
:100990004FF44062C4F20202126822F030021A6080
:1009A0004FF44063C4F202034FF44062C4F2020207
:1009B000126842F010021A604FF44063C4F202035E
:1009C0004FF44062C4F20202526822F004025A60FC
:1009D0004FF44063C4F202034FF44062C4F20202D7
:1009E000926822F030029A604FF44063C4F202032E
:1009F0004FF44062C4F20202926842F020029A6010
:100A00004FF44063C4F202034FF44062C4F20202A6
:100A1000D26822F03002DA604FF44063C4F202037D
:100A20004FF44062C4F20202D26842F01002DA606F
:100A30004FF40063C4F202034FF40062C4F20202F6
:100A4000128B42F4006292B21A834FF44063C4F2F4
:100A500002034FF44062C4F20202128B42F004021D
:100A600092B21A834FF48063C4F202034FF480629F
:100A7000C4F20202128B42F0100292B21A834FF4B7
:100A80000063C4F202034FF40062C4F20202128B4C
:100A900042F0040292B21A834FF00003C4F2020340
:100AA0004FF00002C4F20202128B42F0020292B234
:100AB0001A834FF40063C4F202034FF40062C4F2DD
:100AC0000202128B42F0100292B21A834FF480633A
:100AD000C4F202034FF48062C4F20202128B42F0AD
:100AE000020292B21A834FF40063C4F202034FF47D
:100AF0000062C4F20202128B42F0200292B21A8308
:100B00004FF48063C4F202034FF48062C4F2020225
:100B1000128B42F0010292B21A834FF48063C4F246
:100B200002034FF48062C4F20202128B42F40062AC
:100B300092B21A834FF40063C4F202034FF40062CE
:100B4000C4F20202528B42F4006292B25A834FF412
:100B50000063C4F202034FF40062C4F20202128B7B
:100B600042F4006292B21A834FF48063C4F202032B
:100B70004FF48062C4F20202528B42F0100292B231
:100B80005A83BD4680BC704780B400AF4FF46053B9
:100B9000C4F202034FF46052C4F20202126B42F03C
:100BA00008021A634FF44063C4F202034FF4406238
:100BB000C4F20202126822F07F421A604FF44063CE
:100BC000C4F202034FF44062C4F20202126842F01F
:100BD000AA421A604FF44063C4F202034FF4406229
:100BE000C4F20202526822F470425A604FF4406329
:100BF000C4F202034FF44062C4F20202926822F08F
:100C00007F429A604FF44063C4F202034FF44062A3
:100C1000C4F20202926842F02A429A604FF44063A2
:100C2000C4F202034FF44062C4F20202D26822F01E
:100C30007F42DA604FF44063C4F202034FF4406233
:100C4000C4F20202D26842F0AA42DA60BD4680BC19
:100C5000704700BF80B483B000AF78607B68032B1F
:100C60000CD84FF44063C4F2020342F6AC72C0F6F3
:100C70000002796852F8212092B21A8307F10C071A
:100C8000BD4680BC704700BF80B483B000AF7860C1
:100C90007B68032B0CD84FF44063C4F2020342F686
:100CA000AC72C0F60002796852F8212092B25A83E1
:100CB00007F10C07BD4680BC704700BF80B584B00B
:100CC00000AF78604FF00003FB6016E04FF00102C8
:100CD000FB6802FA03F31A467B681340002B04D02A
:100CE000FB681846FFF7B6FF03E0FB681846FFF7FE
:100CF000CBFFFB6803F10103FB60FB68032BE5DD21
:100D000007F11007BD4680BD80B487B000AF4FF03B
:100D100000033B614FF000037B614FF00203FB6077
:100D20004FF00003BB604FF002037B604FF4605351
:100D3000C4F202039B6803F00C033B613B69042B84
:100D40000DD0082B15D0002B69D140F2E023C2F260
:100D500000034FF41052C0F2F4021A6069E040F24E
:100D6000E023C2F2000347F64002C0F27D121A608F
:100D70005FE04FF46053C4F202035B6803F4800346
:100D80004FEA9353BB604FF46053C4F202035B68B5
:100D900003F03F037B60BB68002B14D047F6400391
:100DA000C0F27D137A68B3FBF2F24FF46053C4F2E1
:100DB0000203596847F6C0730B404FEA931303FBD5
:100DC00002F37B6113E04FF41053C0F2F4037A682E
:100DD000B3FBF2F24FF46053C4F20203596847F6D2
:100DE000C0730B404FEA931303FB02F37B614FF494
:100DF0006053C4F202035B6803F440334FEA1343C9
:100E000003F101034FEA4303FB607A69FB68B2FB1D
:100E1000F3F240F2E023C2F200031A6009E040F26C
:100E2000E023C2F200034FF41052C0F2F4021A6041
:100E300000BF07F11C07BD4680BC704780B483B07B
:100E400000AF03463960FB7197F90730002B10DAC9
:100E50004FF46D43CEF20003FA7902F00F02A2F1D3
:100E600004013A68D2B24FEA0212D2B25B181A7683
:100E70000DE04FF46143CEF2000397F907103A6892
:100E8000D2B24FEA0212D2B25B1883F8002307F104
:100E90000C07BD4680BC704780B582B000AF78605B
:100EA0007B6803F1FF326FF07F439A4202D94FF023
:100EB00001031DE04EF21003CEF200037A6802F146
:100EC000FF325A604FF0FF304FF00F01FFF7B6FFCF
:100ED0004EF21003CEF200034FF000029A604EF281
:100EE0001003CEF200034FF007021A604FF0000328
:100EF000184607F10807BD4680BD00BF80B500AFAA
:100F000040F2E823C2F200031B6803F1010240F241
:100F1000E823C2F200031A6000F092FD40F254137D
:100F2000C2F200031B68132B0CDC40F25413C2F214
:100F300000031B6803F1010240F25413C2F20003E4
:100F40001A600EE000F098FA00F0BEF800F00AF81F
:100F500000F002F940F25413C2F200034FF0000215
:100F60001A6080BD80B483B000AF40F2B013C2F20B
:100F700000034FF000021A6040F2B413C2F2000303
:100F80004FF000021A604FF000037B6092E04FF0D8
:100F900001027B6802FA03F240F25013C2F200032E
:100FA0001B681A407B6822FA03F24FF001017B684C
:100FB00001FA03F140F2AC13C2F200031B681940BE
:100FC0007B6821FA03F3002B14BF00230123DBB25B
:100FD0001340002B21D04FF001027B6802FA03F28C
:100FE00040F2B013C2F200031B6813431A4640F2EA
:100FF000B013C2F200031A604FF001027B6802FADC
:1010000003F240F2AC13C2F200031B6813431A460A
:1010100040F2AC13C2F200031A604FF001027B6889
:1010200002FA03F240F25013C2F200031B681A40A6
:101030007B6822FA03F3002B14BF00230123DBB2E9
:101040001A464FF001017B6801FA03F140F2AC133C
:10105000C2F200031B6819407B6821FA03F31340B6
:10106000002B23D04FF001027B6802FA03F240F21A
:10107000B413C2F200031B6813431A4640F2B413C0
:10108000C2F200031A604FF001027B6802FA03F318
:101090006FEA030240F2AC13C2F200031B68134074
:1010A0001A4640F2AC13C2F200031A607B6803F1E7
:1010B00001037B607B680C2B7FF769AF184607F153
:1010C0000C07BD4680BC704780B483B000AF40F2CF
:1010D000A813C2F200031B68132B31DC4FF014037A
:1010E0007B6013E07B6803F1FF3240F25813C2F2D9
:1010F000000353F8221040F25813C2F200037A683A
:1011000043F822107B6803F1FF337B607B68002B80
:10111000E8DC40F25013C2F200031A6840F25813A0
:10112000C2F200031A6040F2A813C2F200031B6867
:1011300003F1010240F2A813C2F200031A6006E0B4
:1011400040F2A813C2F200034FF000021A6007F148
:101150000C07BD4680BC704780B500AF40F2C81395
:10116000C2F200031B68012B29D0022B2AD0002BCE
:101170002DD140F25013C2F200031B684FEA232323
:1011800003F00103002B07D040F2C813C2F20003A2
:101190004FF001021A6019E040F25013C2F200034E
:1011A0001B684FEA632303F00103002B0ED040F2CB
:1011B000C813C2F200034FF002021A6006E000F00A
:1011C00007F804E000F0D0F800BF00E000BF80BDE9
:1011D00080B500AF00F04EF840F25013C2F20003A9
:1011E0001B6803F40073002B06D040F2C813C2F250
:1011F00000034FF002021A6040F2B013C2F2000383
:101200001B6803F00103002B14D040F23003C2F23C
:1012100000031A6841F658339A420BDC40F230035F
:10122000C2F200031B6803F57A7240F23003C2F287
:1012300000031A6040F2B013C2F200031B6803F00F
:101240000203002B14D040F23003C2F200031A68EC
:1012500040F264439A420BDD40F23003C2F20003D5
:101260001B68A3F57A7240F23003C2F200031A60E1
:1012700080BD00BF80B483B000AF40F23003C2F243
:1012800000031B687B607A6840F2E7339A421FDDF7
:101290007A6844F6D353C1F2620383FB02134FEA28
:1012A000A3114FEAE273CA1A40F21403C2F2000318
:1012B0001A6040F21403C2F200031A684FF6184392
:1012C000CFF6FF7303FB02F37A68D3187B6006E066
:1012D00040F21403C2F200034FF00A021A607A6867
:1012E00048F21F53C5F2EB1383FB02134FEA63115D
:1012F0004FEAE273CA1A40F21803C2F200031A60FE
:1013000040F21803C2F200031B686FF0630202FB95
:1013100003F37A68D3187B607A6846F26763C6F293
:10132000666383FB02134FEAA3014FEAE273CA1A12
:1013300040F21C03C2F200031A6040F21C03C2F226
:1013400000031B686FF0090202FB03F37A68D318ED
:101350007B6040F22003C2F200037A681A6007F152
:101360000C07BD4680BC704780B500AF00F014F894
:1013700040F25013C2F200031B684FEA232303F02C
:101380000103002B06D040F2C813C2F200034FF055
:1013900001021A6080BD00BF80B483B000AF40F28C
:1013A0003403C2F200031B687B6040F21403C2F2F4
:1013B00000034FF00A021A607B68002B0BDA40F240
:1013C0001803C2F200034FF011021A607B68C3F1E8
:1013D00000037B6027E07B68632B07DC40F2180387
:1013E000C2F200034FF00A021A601CE07A6848F269
:1013F0001F53C5F2EB1383FB02134FEA63114FEA4D
:10140000E273CA1A40F21803C2F200031A6040F2F3
:101410001803C2F200031B686FF0630202FB03F3C0
:101420007A68D3187B607A6846F26763C6F26663AF
:1014300083FB02134FEAA3014FEAE273CA1A40F298
:101440001C03C2F200031A6040F21C03C2F2000344
:101450001B686FF0090202FB03F37A68D3187B6004
:1014600040F22003C2F200037A681A6007F10C0709
:10147000BD4680BC704700BF80B500AF4FF0010093
:1014800000F01AF84FF0030000F016F84FF00500D6
:1014900000F012F84FF0070000F00EF84FF00900CE
:1014A00000F00AF84FF00B0000F006F84FF00D00C6
:1014B00000F002F880BD00BF80B485B000AF786056
:1014C0004FF40063C4F202034FF40062C4F202025C
:1014D000128B42F0040292B21A834FF00003C4F25E
:1014E00002034FF00002C4F20202128B42F0020229
:1014F00092B21A834FF40063C4F202034FF4006205
:10150000C4F20202128B42F0100292B21A834FF41C
:101510008063C4F202034FF48062C4F20202128BB1
:1015200042F0020292B21A834FF40063C4F2020343
:101530004FF40062C4F20202128B42F0200292B217
:101540001A834FF48063C4F202034FF48062C4F242
:101550000202128B42F0010292B21A834FF48063AE
:10156000C4F202034FF48062C4F20202128B42F40E
:10157000006292B21A834FF40063C4F202034FF484
:101580000062C4F20202528B42F4006292B25A83A9
:101590004FF40063C4F202034FF40062C4F202028B
:1015A000128B42F4006292B21A834FF48063C4F249
:1015B00002034FF48062C4F20202528B42F0100226
:1015C00092B25A834FF48063C4F202034FF48062F4
:1015D000C4F20202128B42F0200292B21A834FF43C
:1015E0008063C4F202034FF48062C4F20202128BE1
:1015F00042F4006292B21A834FF48063C4F2020391
:101600004FF48062C4F20202128B42F0010292B2E5
:101610001A834FF48063C4F202034FF48062C4F271
:101620000202128B42F0020292B21A834FF400635C
:10163000C4F202034FF40062C4F20202128B42F0C1
:10164000100292B21A834FF40063C4F202034FF403
:101650000062C4F20202128B42F0200292B21A839C
:101660004FF00003C4F202034FF00002C4F2020282
:10167000128B42F0020292B21A837B6803F1FF33AD
:101680000C2B7FD801A252F823F000BFC11600082E
:1016900085170008DD16000885170008F9160008F0
:1016A000851700081517000885170008311700086E
:1016B000851700084D1700088517000869170008EE
:1016C0004FF48063C4F202034FF48062C4F202025A
:1016D000528B42F0200292B25A8353E04FF480635F
:1016E000C4F202034FF48062C4F20202528B42F44D
:1016F000006292B25A8345E04FF48063C4F2020361
:101700004FF48062C4F20202528B42F0010292B2A4
:101710005A8337E04FF48063C4F202034FF48062CF
:10172000C4F20202528B42F0020292B25A8329E0C2
:101730004FF40063C4F202034FF40062C4F20202E9
:10174000528B42F0100292B25A831BE04FF40063B6
:10175000C4F202034FF40062C4F20202528B42F060
:10176000200292B25A830DE04FF00003C4F202034C
:101770004FF00002C4F20202528B42F0020292B217
:101780005A8300BF4FF44063C4F202034FF4406237
:10179000C4F20202528B42F0040292B25A834FF416
:1017A0004063C4F202034FF44062C4F20202128B9F
:1017B00042F0040292B21A834FF40063C4F20203AF
:1017C0004FF40062C4F20202528B42F0020292B263
:1017D0005A834DF6AD63FB604FF00003C4F2020381
:1017E0001B6903F40043002B14BF00230123DBB269
:1017F000FB607B6803F1FF334FF0010202FA03F351
:101800006FEA030240F25013C2F200031B68134058
:101810001A4640F25013C2F200031A607B6803F1CB
:10182000FF33FA6802FA03F240F25013C2F20003E7
:101830001B681A4340F25013C2F200031A604FF4BF
:101840000063C4F202031B6903F48073002B14BF0E
:1018500000230123DBB2FB604FF001027B6802FA38
:1018600003F36FEA030240F25013C2F200031B6855
:1018700013401A4640F25013C2F200031A60FA688D
:101880007B6802FA03F240F25013C2F200031B68B5
:101890001A4340F25013C2F200031A6040F6AD330F
:1018A000BB6040F25013C2F200031B68BB6007F13B
:1018B0001407BD4680BC704780B485B000AF786027
:1018C00042F24533C0F20103FB6000BFFB68002B0E
:1018D0000CBF00230123DBB2FA6802F1FF32FA6089
:1018E000002BF3D100BF07F11407BD4680BC704741
:1018F00080B400AF4FF46053C4F202034FF460525F
:10190000C4F20202126B42F001021A634FF00003AC
:10191000C4F202034FF00002C4F20202126822F085
:1019200003021A604FF00003C4F202034FF00002FA
:10193000C4F20202926822F003029A604FF00003A0
:10194000C4F202034FF00002C4F20202926842F0B5
:1019500002029A604FF00003C4F202034FF000024B
:10196000C4F20202D26822F00302DA60BD4680BCF3
:10197000704700BF80B400AF4FF00003C4F2020311
:101980001B6903F001031846BD4680BC704700BFC9
:1019900080B58AB000AF4FF000037B604FF00003CA
:1019A000BB604FF00003FB604FF004033B614FF05E
:1019B000010387F8273007F1140107F1040297F8B3
:1019C0002730084611461A46FEF7BFFB4FF00003CA
:1019D0007B604FF00003BB604FF00303FB604FF0F0
:1019E00010033B614FF0200387F8273007F1140103
:1019F00007F1040297F82730084611461A46FEF709
:101A0000A4FB4FF000437B604FF00003BB604FF03E
:101A10000003FB604FF000033B614FF0010387F8C8
:101A2000273007F1140107F1040297F82730084620
:101A300011461A46FEF789FB07F12807BD4680BD0F
:101A400080B500AF40F21003C2F200031B6803F13F
:101A5000FF33042B7FD801A252F823F0711A00083B
:101A60009F1A0008CD1A0008FB1A0008291B00085D
:101A700040F21403C2F200031B684FF00100194644
:101A800000F074F840F21003C2F200031B6803F187
:101A9000010240F21003C2F200031A6063E040F258
:101AA0001803C2F200031B684FF00200194600F051
:101AB0005DF840F21003C2F200031B6803F101025B
:101AC00040F21003C2F200031A604CE040F21C0323
:101AD000C2F200031B684FF00300194600F046F8FD
:101AE00040F21003C2F200031B6803F1010240F24E
:101AF0001003C2F200031A6035E040F22003C2F284
:101B000000031B684FF00400194600F02FF840F264
:101B10001003C2F200031B6803F1010240F210033C
:101B2000C2F200031A601EE040F22403C2F2000376
:101B30001B684FF00500194600F018F840F210033A
:101B4000C2F200031B6803F1010240F21003C2F26B
:101B500000031A6007E040F21003C2F200034FF0E6
:101B600001021A6000BF184680BD00BF80B483B078
:101B700000AF786039604FF40063C4F202034FF4A1
:101B80000062C4F20202128B42F0020292B21A8385
:101B90003B68112B00F2928701A252F823F000BF9C
:101BA000E91B0008BD1C0008911D0008651E000807
:101BB000391F00080D200008E1200008B5210008A9
:101BC000892200085B2300082D240008FF24000858
:101BD000D1250008A326000875270008472800081B
:101BE00019290008EB2900084FF40063C4F202032E
:101BF0004FF40062C4F20202528B42F0200292B211
:101C00005A834FF48063C4F202034FF48062C4F23B
:101C10000202528B42F0020292B25A834FF000034A
:101C2000C4F202034FF00002C4F20202528B42F0EF
:101C3000020292B25A834FF48063C4F202034FF45B
:101C40008062C4F20202528B42F0200292B25A83A6
:101C50004FF48063C4F202034FF48062C4F20202C4
:101C6000528B42F4006292B25A834FF40063C4F282
:101C700002034FF40062C4F20202528B42F00402EB
:101C800092B25A834FF40063C4F202034FF400622D
:101C9000C4F20202128B42F0100292B21A834FF485
:101CA0008063C4F202034FF48062C4F20202128B1A
:101CB00042F0010292B21A8300F000BF4FF40063B9
:101CC000C4F202034FF40062C4F20202128B42F02B
:101CD000200292B21A834FF48063C4F202034FF4DD
:101CE0008062C4F20202528B42F0020292B25A8324
:101CF0004FF00003C4F202034FF00002C4F20202EC
:101D0000528B42F0020292B25A834FF48063C4F2C3
:101D100002034FF48062C4F20202128B42F02002EE
:101D200092B21A834FF48063C4F202034FF48062CC
:101D3000C4F20202128B42F4006292B21A834FF490
:101D40000063C4F202034FF40062C4F20202128B79
:101D500042F0040292B21A834FF40063C4F2020309
:101D60004FF40062C4F20202128B42F0100292B2EF
:101D70001A834FF48063C4F202034FF48062C4F20A
:101D80000202128B42F0010292B21A8300F096BE58
:101D90004FF40063C4F202034FF40062C4F2020283
:101DA000528B42F0200292B25A834FF48063C4F205
:101DB00002034FF48062C4F20202528B42F002022C
:101DC00092B25A834FF00003C4F202034FF00002B4
:101DD000C4F20202128B42F0020292B21A834FF452
:101DE0008063C4F202034FF48062C4F20202528B99
:101DF00042F0200292B25A834FF48063C4F202038D
:101E00004FF48062C4F20202528B42F4006292B23A
:101E10005A834FF40063C4F202034FF40062C4F229
:101E20000202128B42F0040292B21A834FF4006352
:101E3000C4F202034FF40062C4F20202528B42F079
:101E4000100292B25A834FF48063C4F202034FF43B
:101E50008062C4F20202128B42F0010292B21A8333
:101E600000F02CBE4FF40063C4F202034FF4006292
:101E7000C4F20202528B42F0200292B25A834FF413
:101E80008063C4F202034FF48062C4F20202528BF8
:101E900042F0020292B25A834FF00003C4F20203EE
:101EA0004FF00002C4F20202528B42F0020292B2E0
:101EB0005A834FF48063C4F202034FF48062C4F289
:101EC0000202528B42F0200292B25A834FF4806396
:101ED000C4F202034FF48062C4F20202128B42F495
:101EE000006292B21A834FF40063C4F202034FF40B
:101EF0000062C4F20202128B42F0040292B21A8310
:101F00004FF40063C4F202034FF40062C4F2020211
:101F1000528B42F0100292B25A834FF48063C4F2A3
:101F200002034FF48062C4F20202128B42F00102FB
:101F300092B21A8300F0C2BD4FF40063C4F20203F0
:101F40004FF40062C4F20202128B42F0200292B2FD
:101F50001A834FF48063C4F202034FF48062C4F228
:101F60000202528B42F0020292B25A834FF00003F7
:101F7000C4F202034FF00002C4F20202528B42F09C
:101F8000020292B25A834FF48063C4F202034FF408
:101F90008062C4F20202128B42F0200292B21A83D3
:101FA0004FF48063C4F202034FF48062C4F2020271
:101FB000128B42F4006292B21A834FF40063C4F2AF
:101FC00002034FF40062C4F20202528B42F0040298
:101FD00092B25A834FF40063C4F202034FF40062DA
:101FE000C4F20202528B42F0100292B25A834FF4B2
:101FF0008063C4F202034FF48062C4F20202128BC7
:1020000042F0010292B21A8300F058BD4FF400630F
:10201000C4F202034FF40062C4F20202528B42F097
:10202000200292B25A834FF48063C4F202034FF449
:102030008062C4F20202128B42F0020292B21A8350
:102040004FF00003C4F202034FF00002C4F2020298
:10205000528B42F0020292B25A834FF48063C4F270
:1020600002034FF48062C4F20202528B42F020025B
:1020700092B25A834FF48063C4F202034FF4806239
:10208000C4F20202128B42F4006292B21A834FF43D
:102090000063C4F202034FF40062C4F20202528BE6
:1020A00042F0040292B25A834FF40063C4F2020376
:1020B0004FF40062C4F20202528B42F0100292B25C
:1020C0005A834FF48063C4F202034FF48062C4F277
:1020D0000202128B42F0010292B21A8300F0EEBCAF
:1020E0004FF40063C4F202034FF40062C4F2020230
:1020F000528B42F0200292B25A834FF48063C4F2B2
:1021000002034FF48062C4F20202128B42F0020218
:1021100092B21A834FF00003C4F202034FF00002A0
:10212000C4F20202528B42F0020292B25A834FF47E
:102130008063C4F202034FF48062C4F20202528B45
:1021400042F0200292B25A834FF48063C4F2020339
:102150004FF48062C4F20202528B42F4006292B2E7
:102160005A834FF40063C4F202034FF40062C4F2D6
:102170000202528B42F0040292B25A834FF400637F
:10218000C4F202034FF40062C4F20202528B42F026
:10219000100292B25A834FF48063C4F202034FF4E8
:1021A0008062C4F20202128B42F0010292B21A83E0
:1021B00000F084BC4FF40063C4F202034FF40062E9
:1021C000C4F20202528B42F0200292B25A834FF4C0
:1021D0008063C4F202034FF48062C4F20202528BA5
:1021E00042F0020292B25A834FF00003C4F202039B
:1021F0004FF00002C4F20202528B42F0020292B28D
:102200005A834FF48063C4F202034FF48062C4F235
:102210000202128B42F0200292B21A834FF48063C2
:10222000C4F202034FF48062C4F20202128B42F441
:10223000006292B21A834FF40063C4F202034FF4B7
:102240000062C4F20202528B42F0040292B25A833C
:102250004FF40063C4F202034FF40062C4F20202BE
:10226000128B42F0100292B21A834FF48063C4F2D0
:1022700002034FF48062C4F20202128B42F00102A8
:1022800092B21A8300F01ABC4FF40063C4F2020346
:102290004FF40062C4F20202528B42F0200292B26A
:1022A0005A834FF48063C4F202034FF48062C4F295
:1022B0000202528B42F0020292B25A834FF00003A4
:1022C000C4F202034FF00002C4F20202528B42F049
:1022D000020292B25A834FF48063C4F202034FF4B5
:1022E0008062C4F20202528B42F0200292B25A8300
:1022F0004FF48063C4F202034FF48062C4F202021E
:10230000528B42F4006292B25A834FF40063C4F2DB
:1023100002034FF40062C4F20202528B42F0040244
:1023200092B25A834FF40063C4F202034FF4006286
:10233000C4F20202528B42F0100292B25A834FF45E
:102340008063C4F202034FF48062C4F20202128B73
:1023500042F0010292B21A83B0E34FF40063C4F278
:1023600002034FF40062C4F20202528B42F02002D8
:1023700092B25A834FF48063C4F202034FF4806236
:10238000C4F20202528B42F0020292B25A834FF020
:102390000003C4F202034FF00002C4F20202528BA7
:1023A00042F0020292B25A834FF48063C4F20203F5
:1023B0004FF48062C4F20202128B42F0200292B209
:1023C0001A834FF48063C4F202034FF48062C4F2B4
:1023D0000202128B42F4006292B21A834FF400633D
:1023E000C4F202034FF40062C4F20202528B42F0C4
:1023F000040292B25A834FF40063C4F202034FF412
:102400000062C4F20202528B42F0100292B25A836E
:102410004FF48063C4F202034FF48062C4F20202FC
:10242000128B42F0010292B21A8347E34FF4006329
:10243000C4F202034FF40062C4F20202128B42F0B3
:10244000200292B21A834FF48063C4F202034FF465
:102450008062C4F20202128B42F0020292B21A832C
:102460004FF00003C4F202034FF00002C4F2020274
:10247000128B42F0020292B21A834FF48063C4F2CC
:1024800002034FF48062C4F20202128B42F0200277
:1024900092B21A834FF48063C4F202034FF4806255
:1024A000C4F20202128B42F4006292B21A834FF419
:1024B0000063C4F202034FF40062C4F20202128B02
:1024C00042F0040292B21A834FF40063C4F2020392
:1024D0004FF40062C4F20202128B42F0100292B278
:1024E0001A834FF48063C4F202034FF48062C4F293
:1024F0000202128B42F0010292B21A83DEE24FF422
:102500000063C4F202034FF40062C4F20202528B71
:1025100042F0200292B25A834FF48063C4F2020365
:102520004FF48062C4F20202528B42F0020292B275
:102530005A834FF00003C4F202034FF00002C4F2CA
:102540000202128B42F0020292B21A834FF48063AD
:10255000C4F202034FF48062C4F20202128B42F012
:10256000200292B21A834FF48063C4F202034FF444
:102570008062C4F20202128B42F4006292B21A83A9
:102580004FF40063C4F202034FF40062C4F202028B
:10259000128B42F0040292B21A834FF40063C4F229
:1025A00002034FF40062C4F20202128B42F01002E6
:1025B00092B21A834FF48063C4F202034FF4806234
:1025C000C4F20202128B42F0010292B21A8375E247
:1025D0004FF40063C4F202034FF40062C4F202023B
:1025E000128B42F0200292B21A834FF48063C4F23D
:1025F00002034FF48062C4F20202128B42F0020224
:1026000092B21A834FF00003C4F202034FF00002AB
:10261000C4F20202528B42F0020292B25A834FF489
:102620008063C4F202034FF48062C4F20202128B90
:1026300042F0200292B21A834FF48063C4F2020384
:102640004FF48062C4F20202128B42F4006292B232
:102650001A834FF40063C4F202034FF40062C4F221
:102660000202128B42F0040292B21A834FF400630A
:10267000C4F202034FF40062C4F20202128B42F071
:10268000100292B21A834FF48063C4F202034FF433
:102690008062C4F20202128B42F0010292B21A83EB
:1026A0000CE24FF40063C4F202034FF40062C4F280
:1026B0000202528B42F0200292B25A834FF480639E
:1026C000C4F202034FF48062C4F20202528B42F061
:1026D000020292B25A834FF00003C4F202034FF099
:1026E0000002C4F20202528B42F0020292B25A83FA
:1026F0004FF48063C4F202034FF48062C4F202021A
:10270000128B42F0200292B21A834FF48063C4F21B
:1027100002034FF48062C4F20202128B42F40062A0
:1027200092B21A834FF40063C4F202034FF40062C2
:10273000C4F20202128B42F0040292B21A834FF4E6
:102740000063C4F202034FF40062C4F20202128B6F
:1027500042F0100292B21A834FF48063C4F2020373
:102760004FF48062C4F20202128B42F0010292B274
:102770001A83A3E14FF40063C4F202034FF4006232
:10278000C4F20202528B42F0200292B25A834FF4FA
:102790008063C4F202034FF48062C4F20202128B1F
:1027A00042F0020292B21A834FF00003C4F2020315
:1027B0004FF00002C4F20202128B42F0020292B207
:1027C0001A834FF48063C4F202034FF48062C4F2B0
:1027D0000202528B42F0200292B25A834FF480637D
:1027E000C4F202034FF48062C4F20202528B42F43C
:1027F000006292B25A834FF40063C4F202034FF4B2
:102800000062C4F20202528B42F0040292B25A8376
:102810004FF40063C4F202034FF40062C4F20202F8
:10282000528B42F0100292B25A834FF48063C4F28A
:1028300002034FF48062C4F20202128B42F00102E2
:1028400092B21A833AE14FF40063C4F202034FF4E8
:102850000062C4F20202128B42F0200292B21A838A
:102860004FF48063C4F202034FF48062C4F20202A8
:10287000128B42F0020292B21A834FF00003C4F2AC
:1028800002034FF00002C4F20202528B42F0020235
:1028900092B25A834FF48063C4F202034FF4806211
:1028A000C4F20202128B42F0200292B21A834FF459
:1028B0008063C4F202034FF48062C4F20202528BBE
:1028C00042F4006292B25A834FF40063C4F20203EE
:1028D0004FF40062C4F20202528B42F0040292B240
:1028E0005A834FF40063C4F202034FF40062C4F24F
:1028F0000202528B42F0100292B25A834FF480636C
:10290000C4F202034FF48062C4F20202128B42F05E
:10291000010292B21A83D1E04FF40063C4F20203C1
:102920004FF40062C4F20202128B42F0200292B213
:102930001A834FF48063C4F202034FF48062C4F23E
:102940000202128B42F0020292B21A834FF000038D
:10295000C4F202034FF00002C4F20202528B42F0B2
:10296000020292B25A834FF48063C4F202034FF41E
:102970008062C4F20202128B42F0200292B21A83E9
:102980004FF48063C4F202034FF48062C4F2020287
:10299000528B42F4006292B25A834FF40063C4F245
:1029A00002034FF40062C4F20202128B42F00402EE
:1029B00092B21A834FF40063C4F202034FF4006230
:1029C000C4F20202528B42F0100292B25A834FF4C8
:1029D0008063C4F202034FF48062C4F20202128BDD
:1029E00042F0010292B21A8368E04FF40063C4F22D
:1029F00002034FF40062C4F20202128B42F0200282
:102A000092B21A834FF48063C4F202034FF48062DF
:102A1000C4F20202128B42F0020292B21A834FF009
:102A20000003C4F202034FF00002C4F20202128B50
:102A300042F0020292B21A834FF48063C4F202039E
:102A40004FF48062C4F20202128B42F0200292B272
:102A50001A834FF48063C4F202034FF48062C4F21D
:102A60000202128B42F4006292B21A834FF40063A6
:102A7000C4F202034FF40062C4F20202128B42F06D
:102A8000040292B21A834FF40063C4F202034FF4BB
:102A90000062C4F20202528B42F0100292B25A83D8
:102AA0004FF48063C4F202034FF48062C4F2020266
:102AB000128B42F0010292B21A8300BF4FF44063BE
:102AC000C4F202034FF44062C4F20202528B42F09D
:102AD000040292B25A834FF44063C4F202034FF4EB
:102AE0004062C4F20202128B42F0040292B21A83D4
:102AF0004FF48063C4F202034FF48062C4F2020216
:102B0000128B42F0100292B21A837B6803F1FF33FA
:102B1000042B00F2D98101A252F823F0312B0008D6
:102B2000E92B0008A12C0008592D0008112E0008DF
:102B30004FF40063C4F202034FF40062C4F20202D5
:102B4000528B42F0040292B25A834FF00003C4F257
:102B500002034FF00002C4F20202128B42F00202A2
:102B600092B21A834FF40063C4F202034FF400627E
:102B7000C4F20202128B42F0100292B21A834FF496
:102B80008063C4F202034FF48062C4F20202128B2B
:102B900042F0020292B21A834FF40063C4F20203BD
:102BA0004FF40062C4F20202128B42F0200292B291
:102BB0001A834FF48063C4F202034FF48062C4F2BC
:102BC0000202128B42F0010292B21A834FF4806328
:102BD000C4F202034FF48062C4F20202128B42F488
:102BE000006292B21A836FE14FF40063C4F20203F1
:102BF0004FF40062C4F20202128B42F0040292B25D
:102C00001A834FF00003C4F202034FF00002C4F233
:102C10000202528B42F0020292B25A834FF40063D6
:102C2000C4F202034FF40062C4F20202128B42F0BB
:102C3000100292B21A834FF48063C4F202034FF47D
:102C40008062C4F20202128B42F0020292B21A8334
:102C50004FF40063C4F202034FF40062C4F20202B4
:102C6000128B42F0200292B21A834FF48063C4F2B6
:102C700002034FF48062C4F20202128B42F001029E
:102C800092B21A834FF48063C4F202034FF480625D
:102C9000C4F20202128B42F4006292B21A8313E170
:102CA0004FF40063C4F202034FF40062C4F2020264
:102CB000128B42F0040292B21A834FF00003C4F266
:102CC00002034FF00002C4F20202128B42F0020231
:102CD00092B21A834FF40063C4F202034FF400620D
:102CE000C4F20202528B42F0100292B25A834FF4A5
:102CF0008063C4F202034FF48062C4F20202128BBA
:102D000042F0020292B21A834FF40063C4F202034B
:102D10004FF40062C4F20202128B42F0200292B21F
:102D20001A834FF48063C4F202034FF48062C4F24A
:102D30000202128B42F0010292B21A834FF48063B6
:102D4000C4F202034FF48062C4F20202128B42F416
:102D5000006292B21A83B7E04FF40063C4F2020338
:102D60004FF40062C4F20202128B42F0040292B2EB
:102D70001A834FF00003C4F202034FF00002C4F2C2
:102D80000202128B42F0020292B21A834FF40063E5
:102D9000C4F202034FF40062C4F20202128B42F04A
:102DA000100292B21A834FF48063C4F202034FF40C
:102DB0008062C4F20202528B42F0020292B25A8343
:102DC0004FF40063C4F202034FF40062C4F2020243
:102DD000128B42F0200292B21A834FF48063C4F245
:102DE00002034FF48062C4F20202128B42F001022D
:102DF00092B21A834FF48063C4F202034FF48062EC
:102E0000C4F20202128B42F4006292B21A835BE0B7
:102E10004FF40063C4F202034FF40062C4F20202F2
:102E2000128B42F0040292B21A834FF00003C4F2F4
:102E300002034FF00002C4F20202128B42F00202BF
:102E400092B21A834FF40063C4F202034FF400629B
:102E5000C4F20202128B42F0100292B21A834FF4B3
:102E60008063C4F202034FF48062C4F20202128B48
:102E700042F0020292B21A834FF40063C4F20203DA
:102E80004FF40062C4F20202528B42F0200292B26E
:102E90005A834FF48063C4F202034FF48062C4F299
:102EA0000202128B42F0010292B21A834FF4806345
:102EB000C4F202034FF48062C4F20202128B42F4A5
:102EC000006292B21A8300BF4FF40063C4F202039F
:102ED0004FF40062C4F20202528B42F4006292B2DA
:102EE0005A834FF40063C4F202034FF40062C4F249
:102EF0000202128B42F4006292B21A834FF4806392
:102F0000C4F202034FF48062C4F20202528B42F018
:102F1000100292B25A834FF40063C4F202034FF4DA
:102F20000062C4F20202528B42F0020292B25A8351
:102F3000184607F10C07BD4680BC704780B584B0C9
:102F400000AF4FF0FF33FB604FF00103BB604FF069
:102F500000037B6040F2E023C2F200034FF4F4422E
:102F6000C0F603221A60FDF7CFFE40F2E023C2F262
:102F700000031A6844F6D353C1F26203A3FB0213A1
:102F80004FEA93131846FDF787FF0346002B00D046
:102F9000FEE7FDF7A3FBFDF7EFF9FDF7F5FDFEF703
:102FA000A7FC4FF000033B60FEE700BF00100000ED
:0C2FB00000200000004000000080000035
:102FBC00FFFFFFFFCDAB5503000000000000000039
:102FCC00010000000E0000000F00000010000000C7
:102FDC00030000000A0000000C00000003000000C9
:102FEC007D000000F6FFFFFF000000000000000065
:102FFC0000000000000000000000000000000000C5
:10300C0000000000000000000000000000000000B4
:10301C0000000000000000000000000000000000A4
:10302C000000000000000000000000000000000094
:10303C000000000000000000000000000000000084
:10304C000000000000000000000000000000000074
:10305C000000000000000000000000000000000064
:10306C000000000000000000000000000000000054
:10307C000000000000000000000000000000000044
:10308C000000000000000000000000000000000034
:10309C000000000000000000000000000000000024
:1030AC000000000000000000000000000000000014
:1030BC000000000000000000000000000000000004
:1030CC0000000000000000000000000000000000F4
:1030DC0000000000000000000000000000000000E4
:1030EC0000000000000000000000000000000000D4
:1030FC0000000000000000000000000000000000C4
:10310C0000000000000000000000000000000000B3
:10311C0000000000000000000000000000000000A3
:10312C000000000000000000000000000000000093
:10313C000000000000000000000000000000000083
:10314C000000000000000000000000000000000073
:10315C000000000000000000000000000000000063
:10316C000000000000000000000000000000000053
:0C317C0000000000000000000000000047
:0400000508000041AE
:00000001FF
