:020000040800F2
:100000000000022041000008A1000008A100000833
:10001000A1000008A1000008A100000800000000E5
:10002000000000000000000000000000A100000827
:10003000A100000800000000A1000008A1000008C5
:100040001349124A134B5B1A00F0078012F8014B58
:1000500001F8014B013B3FF7F9AF0F490F4B5B1A1A
:1000600000F007804FF0000201F8012B013B3FF741
:10007000FBAF00F01EF800F033F800F030F84FF05E
:1000800000004FF0000100F02DFBFEE7B80700086C
:10009000000000201000002010000020200100209F
:1000A000704700006748FDE76749FDE7674AFDE7DD
:1000B00070476748674908604AF6CD30664908804E
:1000C0004FF05500654908706549664B5B1A05D0CD
:1000D0004FF0000201F8012B013BFBDC7047704739
:1000E000704761480168A1F1020101605F48016841
:1000F00001F102010160574801684FEA51010160B6
:1001000070474FF6FF73C0F200031BB1A3F1010368
:10011000FFF7FBBF704756494FEA8000084440F0A4
:1001200001000047410100083D01000839010008B5
:100130003501000800BF704700BF704700BF70471F
:1001400000BF7047000102030405060708090A0BF7
:100150000C0D0E0F101112131415161718191A1B67
:100160001C1D1E1F202122232425262728292A2B57
:100170002C2D2E2F303132333435363738393A3B47
:100180003C3D3E3F404142434445464748494A4B37
:100190004C4D4E4F505152535455565758595A5B27
:1001A0005C5D5E5F606162636465666768696A6B17
:1001B0006C6D6E6F707172737475767778797A7B07
:1001C0007C7D7E7F808182838485868788898A8BF7
:1001D0008C8D8E8F909192939495969798999A9BE7
:1001E0009C9D9E9FA0A1A2A3A4A5A6A7A8A9AAABD7
:1001F000ACADAEAFB0B1B2B3B4B5B6B7B8B9BABBC7
:10020000BCBDBEBFC0C1C2C3C4C5C6C7C8C9CACBB6
:10021000CCCDCECFD0D1D2D3D4D5D6D7D8D9DADBA6
:10022000DCDDDEDFE0E1E2E3E4E5E6E7E8E9EAEB96
:10023000ECEDEEEFF0F1F2F3F4F5F6F7F8F9FAFB86
:10024000FCFDFEFF54002002580020025C0020024A
:10025000FFFFFFFF00000020040000200600002038
:100260001000002010000020340200202401002093
:100270002401000880B400AF4FF46053C4F20203BD
:100280004FF46052C4F20202126B42F008021A6389
:100290004FF44063C4F202034FF44062C4F202021E
:1002A000126822F07F421A604FF44063C4F20203E6
:1002B0004FF44062C4F20202126842F0AA421A608D
:1002C0004FF44063C4F202034FF44062C4F20202EE
:1002D000526822F470425A604FF44063C4F2020341
:1002E0004FF44062C4F20202926822F07F429A60A8
:1002F0004FF44063C4F202034FF44062C4F20202BE
:10030000926842F02A429A604FF44063C4F20203BA
:100310004FF44062C4F20202D26822F07F42DA60F7
:100320004FF44063C4F202034FF44062C4F202028D
:10033000D26842F0AA42DA60BD4680BC704700BF76
:1003400080B483B000AF78607B68032B0CD84FF487
:100350004063C4F2020340F2A872C0F6000279685A
:1003600052F8212092B21A8307F10C07BD4680BCD7
:10037000704700BF80B483B000AF78607B68032B08
:100380000CD84FF44063C4F2020340F2A872C0F6E6
:100390000002796852F8212092B25A8307F10C07C3
:1003A000BD4680BC704700BF80B584B000AF7860A8
:1003B0004FF00003FB6016E04FF00102FB6802FA09
:1003C00003F31A467B681340002B04D0FB681846E1
:1003D000FFF7B6FF03E0FB681846FFF7CBFFFB68AB
:1003E00003F10103FB60FB68032BE5DD07F1100758
:1003F000BD4680BD80B487B000AF4FF000033B61C5
:100400004FF000037B614FF00203FB604FF00003ED
:10041000BB604FF002037B604FF46053C4F20203F1
:100420009B6803F00C033B613B69042B0DD0082B48
:1004300015D0002B69D140F23023C2F200034FF4F3
:100440001052C0F2F4021A6069E040F23023C2F2A6
:10045000000347F64002C0F27D121A605FE04FF4DD
:100460006053C4F202035B6803F480034FEA9353C2
:10047000BB604FF46053C4F202035B6803F03F03B8
:100480007B60BB68002B14D047F64003C0F27D139D
:100490007A68B3FBF2F24FF46053C4F20203596876
:1004A00047F6C0730B404FEA931303FB02F37B61E3
:1004B00013E04FF41053C0F2F4037A68B3FBF2F286
:1004C0004FF46053C4F20203596847F6C0730B40FF
:1004D0004FEA931303FB02F37B614FF46053C4F2C2
:1004E00002035B6803F440334FEA134303F1010353
:1004F0004FEA4303FB607A69FB68B2FBF3F240F218
:100500003023C2F200031A6009E040F23023C2F245
:1005100000034FF41052C0F2F4021A6000BF07F15A
:100520001C07BD4680BC704780B483B000AF034653
:100530003960FB7197F90730002B10DA4FF46D43E7
:10054000CEF20003FA7902F00F02A2F104013A6838
:10055000D2B24FEA0212D2B25B181A760DE04FF413
:100560006143CEF2000397F907103A68D2B24FEA1E
:100570000212D2B25B1883F8002307F10C07BD46C4
:1005800080BC704780B582B000AF78607B6803F1B3
:10059000FF326FF07F439A4202D94FF001031DE012
:1005A0004EF21003CEF200037A6802F1FF325A6075
:1005B0004FF0FF304FF00F01FFF7B6FF4EF2100380
:1005C000CEF200034FF000029A604EF21003CEF21A
:1005D00000034FF007021A604FF00003184607F1BE
:1005E0000807BD4680BD00BF80B400AF40F238238D
:1005F000C2F200031B6803F1010240F23823C2F289
:1006000000031A60BD4680BC704700BF80B485B04F
:1006100000AF786042F24533C0F20103FB6000BFD7
:10062000FB68002B0CBF00230123DBB2FA6802F148
:10063000FF32FA60002BF3D100BF07F11407BD466B
:1006400080BC704780B400AF4FF46053C4F2020323
:100650004FF46052C4F20202126B42F001021A63BC
:100660004FF00003C4F202034FF00002C4F2020292
:10067000126822F003021A604FF00003C4F2020372
:100680004FF00002C4F20202926822F003029A6064
:100690004FF00003C4F202034FF00002C4F2020262
:1006A000926842F002029A604FF00003C4F2020323
:1006B0004FF00002C4F20202D26822F00302DA60B4
:1006C000BD4680BC704700BF80B400AF4FF0000350
:1006D000C4F202031B6903F001031846BD4680BC47
:1006E000704700BF80B584B000AF4FF0FF33FB60B0
:1006F0004FF00103BB604FF000037B6040F23023FA
:10070000C2F200034FF4F442C0F603221A60FFF76E
:1007100071FE40F23023C2F200031A6844F6D3534C
:10072000C1F26203A3FB02134FEA93131846FFF7CB
:1007300029FF0346002B00D0FEE7FFF79BFDFFF7E4
:1007400081FFFFF7C1FF78607B68012B23D0FA6837
:10075000BB68D318FB60FB68042B06D14FF0FF3356
:10076000BB604FF00303FB6008E0FB68002B05DA79
:100770004FF00103BB604FF00003FB60FB681846BD
:10078000FFF7DEFD4FF03200FFF740FF4FF0C800EB
:10079000FFF73CFFD5E74FF00F00FFF705FE4FF0E6
:1007A0000A00FFF733FFCCE7001000000020000034
:0807B000004000000080000081
:1007B800FFFFFFFFCDAB5500000000000000000068
:1007C8000000000000000000000000000000000021
:1007D8000000000000000000000000000000000011
:1007E8000000000000000000000000000000000001
:1007F80000000000000000000000000000000000F1
:1008080000000000000000000000000000000000E0
:1008180000000000000000000000000000000000D0
:1008280000000000000000000000000000000000C0
:1008380000000000000000000000000000000000B0
:1008480000000000000000000000000000000000A0
:100858000000000000000000000000000000000090
:100868000000000000000000000000000000000080
:100878000000000000000000000000000000000070
:100888000000000000000000000000000000000060
:100898000000000000000000000000000000000050
:1008A8000000000000000000000000000000000040
:1008B8000000000000000000000000000000000030
:1008C8000000000000000000000000000000000020
:0400000508000041AE
:00000001FF
